:03000000020006F5
:03005F0002000399
:0300030002007781
:100062007E647F00EE24FFFCEF34FFFD8C068D07DB
:10007200EC4D70F022750A01750B4F750C12750D5F
:1000820006750E4C750F2475102075110F75120030
:1000920075130CE4F514F515751601F517E4F5085A
:1000A200F509E508240AF987A0E514451524FF920D
:1000B200A7E516451724FF92977A007B00EA240AE7
:1000C200F98790E514451524FF92A7E516451724F4
:1000D200FF92977EEE7F02C007C006C003C00212E5
:1000E2000062D002D003D006D007EE24FFFCEF342A
:1000F200FFFD8C068D07EC4D70DD0ABA00010BC3C3
:10010200EA940AEB6480948040B37404B50806E470
:10011200B5090280028006E516451760180508E455
:10012200B508020509C3E508940AE50964809480CC
:1001320050030200A4E516F4F516E517F4F517E5E9
:0C01420014F4F514E515F4F51502009F07
:06003500E478FFF6D8FD9F
:100013007900E94400601B7A00900152780175A0D1
:1000230000E493F2A308B8000205A0D9F4DAF2754C
:02003300A0FF2C
:10003B007800E84400600A790175A000E4F309D860
:10004B00FC7800E84400600C7900900001E4F0A318
:04005B00D8FCD9FAFA
:0D00060075811712014EE5826003020003B0
:04014E007582002294
:00000001FF
