:03000000020006F5
:03005F0002000399
:0300030002007781
:100062007E647F00EE24FFFCEF34FFFD8C068D07DB
:10007200EC4D70F022750A01750B4F750C12750D5F
:1000820006750E4C750F2475102075110F75120030
:1000920075130CE4F508F509E508240AF987A07C34
:1000A200007D00EC240AF987907AEE7B02C005C03D
:1000B20004C003C002120062D002D003D004D005F3
:1000C200EA24FFFEEB34FFFF8E028F03EE4F70DD5A
:1000D2000CBC00010DC3EC940AED6480948040C313
:1000E2000508E4B508020509C3E5089406E50964B4
:0700F20080948040A3809C74
:06003500E478FFF6D8FD9F
:100013007900E94400601B7A009000FD780175A027
:1000230000E493F2A308B8000205A0D9F4DAF2754C
:02003300A0FF2C
:10003B007800E84400600A790175A000E4F309D860
:10004B00FC7800E84400600C7900900001E4F0A318
:04005B00D8FCD9FAFA
:0D0006007581131200F9E58260030200030A
:0400F90075820022EA
:00000001FF
