:03000000020006F5
:03005F0002000399
:0300030002007781
:100062007E647F00EE24FFFCEF34FFFD8C068D07DB
:10007200EC4D70F022750A01750B4F750C12750D5F
:1000820006750E4C750F2475102075110F75120030
:1000920075130CC2A7D297E4F508F509E508240AFE
:1000A200F987A0A2A792A77C007D00EC240AF98719
:1000B20090A29792977AEE7B02C005C004C003C05B
:1000C20002120062D002D003D004D005EA24FFFE5F
:1000D200EB34FFFF8E028F03EE4F70DD0CBC00018C
:1000E2000DC3EC940AED6480948040BF7404B5089B
:1000F20006E4B50902800280033097150508E4B5CD
:1001020008020509C3E508940AE509648094804061
:080112008BD2A7D297020099DD
:06003500E478FFF6D8FD9F
:100013007900E94400601B7A0090011E780175A005
:1000230000E493F2A308B8000205A0D9F4DAF2754C
:02003300A0FF2C
:10003B007800E84400600A790175A000E4F309D860
:10004B00FC7800E84400600C7900900001E4F0A318
:04005B00D8FCD9FAFA
:0D00060075811312011AE5826003020003E8
:04011A0075820022C8
:00000001FF
