:03000000020006F5
:03005F0002000399
:0300030002007781
:100062007E647F00EE24FFFCEF34FFFD8C068D07DB
:10007200EC4D70F022750A81750BCF750C92750DDF
:1000820086750ECC750FA47510A075118F75128030
:1000920075138C7514007515FFE4F508F509E5086C
:1000A200240AF987A0E51424FF92A7E51524FF92FC
:1000B200977A007B00EA240AF98790E51424FF92DC
:1000C200A7E51524FF92977CEE7D02C005C004C00F
:1000D20003C002120062D002D003D004D005EC2487
:1000E200FFFEED34FFFF8E048F05EE4F70DD0ABA7E
:1000F20000010BC3EA940AEB6480948040B7740455
:10010200B50806E4B5090280028004E51560180509
:1001120008E4B508020509C3E508940AE509648004
:10012200948050030200A0E514F515F4F5140200C2
:010132009B31
:06003500E478FFF6D8FD9F
:100013007900E94400601B7A00900137780175A0EC
:1000230000E493F2A308B8000205A0D9F4DAF2754C
:02003300A0FF2C
:10003B007800E84400600A790175A000E4F309D860
:10004B00FC7800E84400600C7900900001E4F0A318
:04005B00D8FCD9FAFA
:0D000600758115120133E5826003020003CD
:0401330075820022AF
:00000001FF
