:10000000020965FFFFFFFFFFFFFFFFFFFFFFFFFF8D
:10080000E709F608DFFA8046E709F208DFFA803EDA
:1008100088828C83E709F0A3DFFA8032E309F608C7
:10082000DFFA8078E309F208DFFA807088828C832F
:10083000E309F0A3DFFA806489828A83E0A3F608E3
:10084000DFFA805889828A83E0A3F208DFFA804CBD
:1008500080D280FA80C680D4806980F28033801094
:1008600080A680EA809A80A880DA80E280CA8033FD
:1008700089828A83ECFAE493A3C8C582C8CCC58375
:10088000CCF0A3C8C582C8CCC583CCDFE9DEE78045
:100890000D89828A83E493A3F608DFF9ECFAA9F0C4
:1008A000EDFB2289828A83ECFAE0A3C8C582C8CC1A
:1008B000C583CCF0A3C8C582C8CCC583CCDFEADE33
:1008C000E880DB89828A83E493A3F208DFF980CC95
:1008D00088F0EF60010E4E60C388F0ED2402B4048E
:1008E0000050B9F582EB2402B4040050AF23234535
:1008F000822390085073E4F508F509780C7C00FD1C
:100900007BFF7A097946FE7F101208D0E509641052
:1009100045087004F508F5090509E50970020508A0
:1009200014240CF8E6F5A0E4F50AF50BC3E50B94E6
:10093000E8E50A6480948350D3120956050BE50B51
:1009400070EA050A80E6014F12064C24200F000CC5
:10095000086031423038E4FFFE0FBF00010EEF6443
:10096000644E70F522787FE4F6D8FD75811B02088D
:01097000F690
:00000001FF
