:03000000020006F5
:03005F0002000399
:0300030002007781
:100062007E647F00EE24FFFCEF34FFFD8C068D07DB
:10007200EC4D70F0227E007F0075080175094F7506
:100082000A12750B06750C4C750D24750E20750F32
:100092000F8F1075110CBE0A07BF00047E007F008F
:1000A2008E048F050EBE00010FEC2408F987A07C98
:1000B200E87D03C007C006C005C004120062D00478
:1000C200D005D006D007EC24FFFAED34FFFB8A04FA
:0800D2008B05EA4B70DD80BED6
:06003500E478FFF6D8FD9F
:100013007900E94400601B7A009000DE780175A046
:1000230000E493F2A308B8000205A0D9F4DAF2754C
:02003300A0FF2C
:10003B007800E84400600A790175A000E4F309D860
:10004B00FC7800E84400600C7900900001E4F0A318
:04005B00D8FCD9FAFA
:0D0006007581111200DAE58260030200032B
:0400DA007582002209
:00000001FF
