:03000000020006F5
:03005F0002000399
:0300030002006395
:10006200227F018FA07D107E27C007C006C0051227
:100072000062D005D006D0071DBDFF011EED4E70F7
:10008200E88F06EE2EFFBF800040D87F808FA07DD4
:10009200107E27C007C006C005120062D005D00638
:1000A200D0071DBDFF011EED4E70E8EFC313FF2404
:0500B200FE40DA80AC05
:06003500E478FFF6D8FD9F
:100013007900E94400601B7A009000BB780175A069
:1000230000E493F2A308B8000205A0D9F4DAF2754C
:02003300A0FF2C
:10003B007800E84400600A790175A000E4F309D860
:10004B00FC7800E84400600C7900900001E4F0A318
:04005B00D8FCD9FAFA
:0D0006007581071200B7E582600302000358
:0400B700758200222C
:00000001FF
